:100000000C942A000C943F000C943F000C943F0089
:100010000C943F000C943F000C943F000C943F0064
:100020000C943F000C943F000C94DD000C943F00B6
:100030000C943F000C943F000C943F000C943F0044
:100040000C943F000C943F000C943F000C943F0034
:100050000C943F0011241FBECFE5D8E0DEBFCDBF1A
:1000600010E0A0E6B0E0E2E0F2E002C005900D9200
:10007000A436B107D9F70E946E000C94FF000C94CF
:100080000000B0990DC08FE59AEE0197F1F700C01E
:10009000000096B381E08927282F217030E002C04C
:1000A00020E030E0822F932F0895B79912C08FE59A
:1000B0009AEE0197F1F700C0000086B3992787FDFB
:1000C000909580959095292F221F2227221F30E09E
:1000D00002C020E030E0822F932F08958FEF8ABB7B
:1000E00088B3816888BB83B7886083BF89B7826023
:1000F00089BF78948BEB8CBF83B7836083BFD1E0DB
:10010000CEEFEE24E3940F2EFDEFFF2EF02D00E056
:100110001FEB05C0D02FC12F02C0DE2DCF2D809147
:1001200062009091630018161906CCF30E944100FA
:10013000892B89F08091600090916100843F91400B
:1001400050F480916000909161008C599F4F909382
:100150006100809360000E945500892B89F0809196
:100160006000909161008536910550F080916000AB
:100170009091610084569109909361008093600092
:100180002091620030916300809160009091610045
:10019000820F931F9093630080936200CBBBDD239B
:1001A00031F0CF3709F4B6CFCC0FC160B8CFCE3F16
:1001B00009F4B3CFC695C068B2CF1F920F920FB6A5
:1001C0000F9211248F939F938CB78A3B19F48BEB7A
:1001D0008CBF05C08CB78B3B11F48AEB8CBF809130
:1001E0006200909163000197909363008093620096
:1001F0009F918F910F900FBE0F901F901895F894BC
:02020000FFCF2E
:040202006400640030
:00000001FF
